:020000040000FA
:020000002428B2
:08000800A000030EA100210E6F
:100010008300A00E200E09007F3983169B001C145C
:100020001A08831208007F3983169B0022089A0061
:100030001C158B1355309D00AA309D009C149C18F4
:100040001F288B17831208008316003085009F013C
:100050000430810000308B00831207309900850145
:10006000A201A401A3012430840023080C208000F5
:10007000840AA30A28302302031D35282430840073
:100080008516A303031952280008A200840A00025F
:1000900003184128000884038000840A2208800095
:1000A000A30B442823300402A30024308400A30BB4
:1000B00041288512A301243084000008A2002308EF
:1000C0001320840AA30A28302302031D5D28672811
:02400E00A43FCD
:1042000089001E0039009F00C2000C00AB00330083
:104210006300D30095007B003800D6001E004800E4
:10422000DB00D8008600FD00A500FC000C00BE00ED
:1042300068009B00D9001000D800EC0090009100AD
:10424000AA00BB00CC00DD00EE00F100C900770041
:00000001FF
